{
  "_format": "hh-sol-artifact-1",
  "contractName": "EchoInn",
  "sourceName": "contracts/EchoInn.sol",
  "abi": [
    {
      "inputs": [],
      "stateMutability": "nonpayable",
      "type": "constructor"
    },
    {
      "anonymous": false,
      "inputs": [
        {
          "indexed": false,
          "internalType": "address",
          "name": "kolAddress",
          "type": "address"
        },
        {
          "indexed": false,
          "internalType": "uint256",
          "name": "tokenId",
          "type": "uint256"
        }
      ],
      "name": "Answer",
      "type": "event"
    },
    {
      "anonymous": false,
      "inputs": [
        {
          "indexed": true,
          "internalType": "address",
          "name": "owner",
          "type": "address"
        },
        {
          "indexed": true,
          "internalType": "address",
          "name": "approved",
          "type": "address"
        },
        {
          "indexed": true,
          "internalType": "uint256",
          "name": "tokenId",
          "type": "uint256"
        }
      ],
      "name": "Approval",
      "type": "event"
    },
    {
      "anonymous": false,
      "inputs": [
        {
          "indexed": true,
          "internalType": "address",
          "name": "owner",
          "type": "address"
        },
        {
          "indexed": true,
          "internalType": "address",
          "name": "operator",
          "type": "address"
        },
        {
          "indexed": false,
          "internalType": "bool",
          "name": "approved",
          "type": "bool"
        }
      ],
      "name": "ApprovalForAll",
      "type": "event"
    },
    {
      "anonymous": false,
      "inputs": [
        {
          "indexed": true,
          "internalType": "address",
          "name": "previousOwner",
          "type": "address"
        },
        {
          "indexed": true,
          "internalType": "address",
          "name": "newOwner",
          "type": "address"
        }
      ],
      "name": "OwnershipTransferred",
      "type": "event"
    },
    {
      "anonymous": false,
      "inputs": [
        {
          "indexed": false,
          "internalType": "address",
          "name": "to",
          "type": "address"
        },
        {
          "indexed": false,
          "internalType": "address",
          "name": "kolAddress",
          "type": "address"
        },
        {
          "indexed": false,
          "internalType": "uint256",
          "name": "award",
          "type": "uint256"
        },
        {
          "indexed": false,
          "internalType": "uint256",
          "name": "tokenId",
          "type": "uint256"
        }
      ],
      "name": "QuestionMint",
      "type": "event"
    },
    {
      "anonymous": false,
      "inputs": [
        {
          "indexed": false,
          "internalType": "address",
          "name": "asker",
          "type": "address"
        },
        {
          "indexed": false,
          "internalType": "uint256",
          "name": "tokenId",
          "type": "uint256"
        },
        {
          "indexed": false,
          "internalType": "uint256",
          "name": "award",
          "type": "uint256"
        }
      ],
      "name": "Refund",
      "type": "event"
    },
    {
      "anonymous": false,
      "inputs": [
        {
          "indexed": false,
          "internalType": "address",
          "name": "subscriber",
          "type": "address"
        },
        {
          "indexed": false,
          "internalType": "uint256",
          "name": "tokenId",
          "type": "uint256"
        },
        {
          "indexed": false,
          "internalType": "uint256",
          "name": "subscribeFee",
          "type": "uint256"
        }
      ],
      "name": "Subscribe",
      "type": "event"
    },
    {
      "anonymous": false,
      "inputs": [
        {
          "indexed": true,
          "internalType": "address",
          "name": "from",
          "type": "address"
        },
        {
          "indexed": true,
          "internalType": "address",
          "name": "to",
          "type": "address"
        },
        {
          "indexed": true,
          "internalType": "uint256",
          "name": "tokenId",
          "type": "uint256"
        }
      ],
      "name": "Transfer",
      "type": "event"
    },
    {
      "inputs": [
        {
          "internalType": "address",
          "name": "kolAddr",
          "type": "address"
        },
        {
          "internalType": "uint256",
          "name": "minimumValue",
          "type": "uint256"
        }
      ],
      "name": "addKol",
      "outputs": [],
      "stateMutability": "nonpayable",
      "type": "function"
    },
    {
      "inputs": [
        {
          "internalType": "uint256",
          "name": "tokenId",
          "type": "uint256"
        }
      ],
      "name": "answer",
      "outputs": [
        {
          "internalType": "uint256",
          "name": "reward",
          "type": "uint256"
        }
      ],
      "stateMutability": "nonpayable",
      "type": "function"
    },
    {
      "inputs": [
        {
          "internalType": "address",
          "name": "to",
          "type": "address"
        },
        {
          "internalType": "uint256",
          "name": "tokenId",
          "type": "uint256"
        }
      ],
      "name": "approve",
      "outputs": [],
      "stateMutability": "nonpayable",
      "type": "function"
    },
    {
      "inputs": [
        {
          "internalType": "address",
          "name": "owner",
          "type": "address"
        }
      ],
      "name": "balanceOf",
      "outputs": [
        {
          "internalType": "uint256",
          "name": "",
          "type": "uint256"
        }
      ],
      "stateMutability": "view",
      "type": "function"
    },
    {
      "inputs": [
        {
          "internalType": "uint256",
          "name": "tokenId",
          "type": "uint256"
        }
      ],
      "name": "burn",
      "outputs": [],
      "stateMutability": "nonpayable",
      "type": "function"
    },
    {
      "inputs": [
        {
          "internalType": "uint256",
          "name": "tokenId",
          "type": "uint256"
        }
      ],
      "name": "getApproved",
      "outputs": [
        {
          "internalType": "address",
          "name": "",
          "type": "address"
        }
      ],
      "stateMutability": "view",
      "type": "function"
    },
    {
      "inputs": [
        {
          "internalType": "address",
          "name": "kolAddr",
          "type": "address"
        }
      ],
      "name": "getKolInfo",
      "outputs": [
        {
          "internalType": "uint256",
          "name": "minimum",
          "type": "uint256"
        }
      ],
      "stateMutability": "view",
      "type": "function"
    },
    {
      "inputs": [
        {
          "internalType": "address",
          "name": "owner",
          "type": "address"
        },
        {
          "internalType": "address",
          "name": "operator",
          "type": "address"
        }
      ],
      "name": "isApprovedForAll",
      "outputs": [
        {
          "internalType": "bool",
          "name": "",
          "type": "bool"
        }
      ],
      "stateMutability": "view",
      "type": "function"
    },
    {
      "inputs": [
        {
          "internalType": "address",
          "name": "addr",
          "type": "address"
        },
        {
          "internalType": "uint256",
          "name": "tokenId",
          "type": "uint256"
        }
      ],
      "name": "isSubscriber",
      "outputs": [
        {
          "internalType": "bool",
          "name": "",
          "type": "bool"
        }
      ],
      "stateMutability": "view",
      "type": "function"
    },
    {
      "inputs": [
        {
          "internalType": "address",
          "name": "",
          "type": "address"
        }
      ],
      "name": "kolList",
      "outputs": [
        {
          "internalType": "address",
          "name": "addr",
          "type": "address"
        },
        {
          "internalType": "uint256",
          "name": "minimumValue",
          "type": "uint256"
        }
      ],
      "stateMutability": "view",
      "type": "function"
    },
    {
      "inputs": [],
      "name": "name",
      "outputs": [
        {
          "internalType": "string",
          "name": "",
          "type": "string"
        }
      ],
      "stateMutability": "view",
      "type": "function"
    },
    {
      "inputs": [],
      "name": "owner",
      "outputs": [
        {
          "internalType": "address",
          "name": "",
          "type": "address"
        }
      ],
      "stateMutability": "view",
      "type": "function"
    },
    {
      "inputs": [
        {
          "internalType": "uint256",
          "name": "tokenId",
          "type": "uint256"
        }
      ],
      "name": "ownerOf",
      "outputs": [
        {
          "internalType": "address",
          "name": "",
          "type": "address"
        }
      ],
      "stateMutability": "view",
      "type": "function"
    },
    {
      "inputs": [
        {
          "internalType": "uint256",
          "name": "",
          "type": "uint256"
        }
      ],
      "name": "questionList",
      "outputs": [
        {
          "internalType": "address",
          "name": "askerAddr",
          "type": "address"
        },
        {
          "internalType": "address",
          "name": "kolAddr",
          "type": "address"
        },
        {
          "internalType": "uint256",
          "name": "reward",
          "type": "uint256"
        },
        {
          "internalType": "enum EchoInn.QState",
          "name": "state",
          "type": "uint8"
        },
        {
          "internalType": "uint256",
          "name": "tokenId",
          "type": "uint256"
        },
        {
          "internalType": "uint256",
          "name": "initTime",
          "type": "uint256"
        }
      ],
      "stateMutability": "view",
      "type": "function"
    },
    {
      "inputs": [
        {
          "internalType": "address",
          "name": "to",
          "type": "address"
        },
        {
          "internalType": "address",
          "name": "kolAddr",
          "type": "address"
        },
        {
          "internalType": "string",
          "name": "questionUri",
          "type": "string"
        }
      ],
      "name": "questionMint",
      "outputs": [
        {
          "internalType": "uint256",
          "name": "tokenId",
          "type": "uint256"
        }
      ],
      "stateMutability": "payable",
      "type": "function"
    },
    {
      "inputs": [
        {
          "internalType": "uint256",
          "name": "tokenId",
          "type": "uint256"
        }
      ],
      "name": "refund",
      "outputs": [
        {
          "internalType": "uint256",
          "name": "refundVal",
          "type": "uint256"
        }
      ],
      "stateMutability": "nonpayable",
      "type": "function"
    },
    {
      "inputs": [],
      "name": "renounceOwnership",
      "outputs": [],
      "stateMutability": "nonpayable",
      "type": "function"
    },
    {
      "inputs": [],
      "name": "reveive",
      "outputs": [],
      "stateMutability": "nonpayable",
      "type": "function"
    },
    {
      "inputs": [
        {
          "internalType": "address",
          "name": "from",
          "type": "address"
        },
        {
          "internalType": "address",
          "name": "to",
          "type": "address"
        },
        {
          "internalType": "uint256",
          "name": "tokenId",
          "type": "uint256"
        }
      ],
      "name": "safeTransferFrom",
      "outputs": [],
      "stateMutability": "nonpayable",
      "type": "function"
    },
    {
      "inputs": [
        {
          "internalType": "address",
          "name": "from",
          "type": "address"
        },
        {
          "internalType": "address",
          "name": "to",
          "type": "address"
        },
        {
          "internalType": "uint256",
          "name": "tokenId",
          "type": "uint256"
        },
        {
          "internalType": "bytes",
          "name": "_data",
          "type": "bytes"
        }
      ],
      "name": "safeTransferFrom",
      "outputs": [],
      "stateMutability": "nonpayable",
      "type": "function"
    },
    {
      "inputs": [
        {
          "internalType": "address",
          "name": "operator",
          "type": "address"
        },
        {
          "internalType": "bool",
          "name": "approved",
          "type": "bool"
        }
      ],
      "name": "setApprovalForAll",
      "outputs": [],
      "stateMutability": "nonpayable",
      "type": "function"
    },
    {
      "inputs": [
        {
          "internalType": "uint256",
          "name": "tokenId",
          "type": "uint256"
        }
      ],
      "name": "subscribe",
      "outputs": [],
      "stateMutability": "payable",
      "type": "function"
    },
    {
      "inputs": [],
      "name": "subscribeFee",
      "outputs": [
        {
          "internalType": "uint256",
          "name": "",
          "type": "uint256"
        }
      ],
      "stateMutability": "view",
      "type": "function"
    },
    {
      "inputs": [
        {
          "internalType": "bytes4",
          "name": "interfaceId",
          "type": "bytes4"
        }
      ],
      "name": "supportsInterface",
      "outputs": [
        {
          "internalType": "bool",
          "name": "",
          "type": "bool"
        }
      ],
      "stateMutability": "view",
      "type": "function"
    },
    {
      "inputs": [],
      "name": "symbol",
      "outputs": [
        {
          "internalType": "string",
          "name": "",
          "type": "string"
        }
      ],
      "stateMutability": "view",
      "type": "function"
    },
    {
      "inputs": [
        {
          "internalType": "uint256",
          "name": "tokenId",
          "type": "uint256"
        }
      ],
      "name": "tokenURI",
      "outputs": [
        {
          "internalType": "string",
          "name": "",
          "type": "string"
        }
      ],
      "stateMutability": "view",
      "type": "function"
    },
    {
      "inputs": [
        {
          "internalType": "address",
          "name": "from",
          "type": "address"
        },
        {
          "internalType": "address",
          "name": "to",
          "type": "address"
        },
        {
          "internalType": "uint256",
          "name": "tokenId",
          "type": "uint256"
        }
      ],
      "name": "transferFrom",
      "outputs": [],
      "stateMutability": "nonpayable",
      "type": "function"
    },
    {
      "inputs": [
        {
          "internalType": "address",
          "name": "newOwner",
          "type": "address"
        }
      ],
      "name": "transferOwnership",
      "outputs": [],
      "stateMutability": "nonpayable",
      "type": "function"
    }
  ],
  "bytecode": "0x6080604052655af3107a4000600b553480156200001b57600080fd5b506040518060400160405280601081526020017f4563686f496e6e4b6e6f776c65646765000000000000000000000000000000008152506040518060400160405280600381526020017f45494b00000000000000000000000000000000000000000000000000000000008152508160009080519060200190620000a0929190620001b0565b508060019080519060200190620000b9929190620001b0565b505050620000dc620000d0620000e260201b60201c565b620000ea60201b60201c565b620002c5565b600033905090565b6000600760009054906101000a900473ffffffffffffffffffffffffffffffffffffffff16905081600760006101000a81548173ffffffffffffffffffffffffffffffffffffffff021916908373ffffffffffffffffffffffffffffffffffffffff1602179055508173ffffffffffffffffffffffffffffffffffffffff168173ffffffffffffffffffffffffffffffffffffffff167f8be0079c531659141344cd1fd0a4f28419497f9722a3daafe3b4186f6b6457e060405160405180910390a35050565b828054620001be9062000260565b90600052602060002090601f016020900481019282620001e257600085556200022e565b82601f10620001fd57805160ff19168380011785556200022e565b828001600101855582156200022e579182015b828111156200022d57825182559160200191906001019062000210565b5b5090506200023d919062000241565b5090565b5b808211156200025c57600081600090555060010162000242565b5090565b600060028204905060018216806200027957607f821691505b6020821081141562000290576200028f62000296565b5b50919050565b7f4e487b7100000000000000000000000000000000000000000000000000000000600052602260045260246000fd5b614db080620002d56000396000f3fe6080604052600436106101b75760003560e01c8063715018a6116100ec578063c87b56dd1161008a578063eaaea05c11610064578063eaaea05c14610626578063ead6219614610668578063eb4634dc146106a5578063f2fde38b146106e3576101b7565b8063c87b56dd14610583578063e565b1de146105c0578063e985e9c5146105e9576101b7565b806395d89b41116100c657806395d89b41146104ef578063a0c991cb1461051a578063a22cb46514610531578063b88d4fde1461055a576101b7565b8063715018a61461047057806373a44717146104875780638da5cb5b146104c4576101b7565b806323b872dd1161015957806342842e0e1161013357806342842e0e146103a457806342966c68146103cd5780636352211e146103f657806370a0823114610433576101b7565b806323b872dd1461030e578063278ecde11461033757806333dbfa3c14610374576101b7565b8063081812fc11610195578063081812fc14610261578063095ea7b31461029e5780630f574ba7146102c7578063134ac62f146102e3576101b7565b806301ffc9a7146101bc57806306f70295146101f957806306fdde0314610236575b600080fd5b3480156101c857600080fd5b506101e360048036038101906101de9190613692565b61070c565b6040516101f09190613d51565b60405180910390f35b34801561020557600080fd5b50610220600480360381019061021b91906136e4565b6107ee565b60405161022d919061410e565b60405180910390f35b34801561024257600080fd5b5061024b610a9b565b6040516102589190613d6c565b60405180910390f35b34801561026d57600080fd5b50610288600480360381019061028391906136e4565b610b2d565b6040516102959190613be4565b60405180910390f35b3480156102aa57600080fd5b506102c560048036038101906102c09190613656565b610bb2565b005b6102e160048036038101906102dc91906136e4565b610cca565b005b3480156102ef57600080fd5b506102f8610f24565b604051610305919061410e565b60405180910390f35b34801561031a57600080fd5b5061033560048036038101906103309190613550565b610f2a565b005b34801561034357600080fd5b5061035e600480360381019061035991906136e4565b610f8a565b60405161036b919061410e565b60405180910390f35b61038e600480360381019061038991906134e9565b61125a565b60405161039b919061410e565b60405180910390f35b3480156103b057600080fd5b506103cb60048036038101906103c69190613550565b611675565b005b3480156103d957600080fd5b506103f460048036038101906103ef91906136e4565b611695565b005b34801561040257600080fd5b5061041d600480360381019061041891906136e4565b6116f1565b60405161042a9190613be4565b60405180910390f35b34801561043f57600080fd5b5061045a60048036038101906104559190613484565b6117a3565b604051610467919061410e565b60405180910390f35b34801561047c57600080fd5b5061048561185b565b005b34801561049357600080fd5b506104ae60048036038101906104a99190613656565b6118e3565b6040516104bb9190613d51565b60405180910390f35b3480156104d057600080fd5b506104d961194e565b6040516104e69190613be4565b60405180910390f35b3480156104fb57600080fd5b50610504611978565b6040516105119190613d6c565b60405180910390f35b34801561052657600080fd5b5061052f611a0a565b005b34801561053d57600080fd5b506105586004803603810190610553919061361a565b611a0c565b005b34801561056657600080fd5b50610581600480360381019061057c919061359f565b611a22565b005b34801561058f57600080fd5b506105aa60048036038101906105a591906136e4565b611a84565b6040516105b79190613d6c565b60405180910390f35b3480156105cc57600080fd5b506105e760048036038101906105e29190613656565b611a96565b005b3480156105f557600080fd5b50610610600480360381019061060b91906134ad565b611bd4565b60405161061d9190613d51565b60405180910390f35b34801561063257600080fd5b5061064d600480360381019061064891906136e4565b611c68565b60405161065f96959493929190613c4b565b60405180910390f35b34801561067457600080fd5b5061068f600480360381019061068a9190613484565b611cf1565b60405161069c919061410e565b60405180910390f35b3480156106b157600080fd5b506106cc60048036038101906106c79190613484565b611d3d565b6040516106da929190613cf1565b60405180910390f35b3480156106ef57600080fd5b5061070a60048036038101906107059190613484565b611d81565b005b60007f80ac58cd000000000000000000000000000000000000000000000000000000007bffffffffffffffffffffffffffffffffffffffffffffffffffffffff1916827bffffffffffffffffffffffffffffffffffffffffffffffffffffffff191614806107d757507f5b5e139f000000000000000000000000000000000000000000000000000000007bffffffffffffffffffffffffffffffffffffffffffffffffffffffff1916827bffffffffffffffffffffffffffffffffffffffffffffffffffffffff1916145b806107e757506107e682611e79565b5b9050919050565b60006107f982611ee3565b610838576040517f08c379a000000000000000000000000000000000000000000000000000000000815260040161082f9061408e565b60405180910390fd5b6000600a600084815260200190815260200160002090508060010160009054906101000a900473ffffffffffffffffffffffffffffffffffffffff1673ffffffffffffffffffffffffffffffffffffffff163373ffffffffffffffffffffffffffffffffffffffff16146108e1576040517f08c379a00000000000000000000000000000000000000000000000000000000081526004016108d890613dae565b60405180910390fd5b6001600381111561091b577f4e487b7100000000000000000000000000000000000000000000000000000000600052602160045260246000fd5b8160030160009054906101000a900460ff166003811115610965577f4e487b7100000000000000000000000000000000000000000000000000000000600052602160045260246000fd5b146109a5576040517f08c379a000000000000000000000000000000000000000000000000000000000815260040161099c906140ae565b60405180910390fd5b6002600a600085815260200190815260200160002060030160006101000a81548160ff02191690836003811115610a05577f4e487b7100000000000000000000000000000000000000000000000000000000600052602160045260246000fd5b02179055503373ffffffffffffffffffffffffffffffffffffffff166108fc82600201549081150290604051600060405180830381858888f19350505050158015610a54573d6000803e3d6000fd5b507f71b140c5252f6e01bdf1e388a6dfbb106438f8eb8034134cde95709b4638394c3384604051610a86929190613cf1565b60405180910390a18060020154915050919050565b606060008054610aaa906143e3565b80601f0160208091040260200160405190810160405280929190818152602001828054610ad6906143e3565b8015610b235780601f10610af857610100808354040283529160200191610b23565b820191906000526020600020905b815481529060010190602001808311610b0657829003601f168201915b5050505050905090565b6000610b3882612033565b610b77576040517f08c379a0000000000000000000000000000000000000000000000000000000008152600401610b6e90613fce565b60405180910390fd5b6004600083815260200190815260200160002060009054906101000a900473ffffffffffffffffffffffffffffffffffffffff169050919050565b6000610bbd826116f1565b90508073ffffffffffffffffffffffffffffffffffffffff168373ffffffffffffffffffffffffffffffffffffffff161415610c2e576040517f08c379a0000000000000000000000000000000000000000000000000000000008152600401610c259061402e565b60405180910390fd5b8073ffffffffffffffffffffffffffffffffffffffff16610c4d61209f565b73ffffffffffffffffffffffffffffffffffffffff161480610c7c5750610c7b81610c7661209f565b611bd4565b5b610cbb576040517f08c379a0000000000000000000000000000000000000000000000000000000008152600401610cb290613ece565b60405180910390fd5b610cc583836120a7565b505050565b610cd381611ee3565b610d12576040517f08c379a0000000000000000000000000000000000000000000000000000000008152600401610d099061408e565b60405180910390fd5b600b54341015610d57576040517f08c379a0000000000000000000000000000000000000000000000000000000008152600401610d4e906140ee565b60405180910390fd5b6001600a600083815260200190815260200160002060060160003373ffffffffffffffffffffffffffffffffffffffff1673ffffffffffffffffffffffffffffffffffffffff16815260200190815260200160002060006101000a81548160ff0219169083151502179055506000600a600834610dd4919061427a565b610dde9190614249565b9050600a600083815260200190815260200160002060000160009054906101000a900473ffffffffffffffffffffffffffffffffffffffff1673ffffffffffffffffffffffffffffffffffffffff166108fc829081150290604051600060405180830381858888f19350505050158015610e5c573d6000803e3d6000fd5b50600a600083815260200190815260200160002060010160009054906101000a900473ffffffffffffffffffffffffffffffffffffffff1673ffffffffffffffffffffffffffffffffffffffff166108fc8234610eb991906142d4565b9081150290604051600060405180830381858888f19350505050158015610ee4573d6000803e3d6000fd5b507f4614f8a9907ae69d017525a0d85be89c0321d65d51f2e88e42a5caed59c3a0a3338334604051610f1893929190613d1a565b60405180910390a15050565b600b5481565b610f3b610f3561209f565b82612160565b610f7a576040517f08c379a0000000000000000000000000000000000000000000000000000000008152600401610f719061406e565b60405180910390fd5b610f8583838361223e565b505050565b6000610f95826116f1565b73ffffffffffffffffffffffffffffffffffffffff163373ffffffffffffffffffffffffffffffffffffffff1614611002576040517f08c379a0000000000000000000000000000000000000000000000000000000008152600401610ff990613eee565b60405180910390fd5b6000600a6000848152602001908152602001600020905060016003811115611053577f4e487b7100000000000000000000000000000000000000000000000000000000600052602160045260246000fd5b8160030160009054906101000a900460ff16600381111561109d577f4e487b7100000000000000000000000000000000000000000000000000000000600052602160045260246000fd5b146110dd576040517f08c379a00000000000000000000000000000000000000000000000000000000081526004016110d4906140ae565b60405180910390fd5b6202a3008160050154426110f191906142d4565b11611131576040517f08c379a000000000000000000000000000000000000000000000000000000000815260040161112890613f6e565b60405180910390fd5b8060000160009054906101000a900473ffffffffffffffffffffffffffffffffffffffff1673ffffffffffffffffffffffffffffffffffffffff166108fc82600201549081150290604051600060405180830381858888f1935050505015801561119f573d6000803e3d6000fd5b506111a9836124a5565b6003600a600085815260200190815260200160002060030160006101000a81548160ff02191690836003811115611209577f4e487b7100000000000000000000000000000000000000000000000000000000600052602160045260246000fd5b02179055507f73f04af9dcc582a923ec15d3eea990fe34adabfff2879e28d44572e01a54abb63384836002015460405161124593929190613d1a565b60405180910390a18060020154915050919050565b60008073ffffffffffffffffffffffffffffffffffffffff16600960008573ffffffffffffffffffffffffffffffffffffffff1673ffffffffffffffffffffffffffffffffffffffff16815260200190815260200160002060000160009054906101000a900473ffffffffffffffffffffffffffffffffffffffff1673ffffffffffffffffffffffffffffffffffffffff16141561132d576040517f08c379a000000000000000000000000000000000000000000000000000000000815260040161132490613eae565b60405180910390fd5b6000600960008573ffffffffffffffffffffffffffffffffffffffff1673ffffffffffffffffffffffffffffffffffffffff1681526020019081526020016000206040518060400160405290816000820160009054906101000a900473ffffffffffffffffffffffffffffffffffffffff1673ffffffffffffffffffffffffffffffffffffffff1673ffffffffffffffffffffffffffffffffffffffff16815260200160018201548152505090508060200151341015611422576040517f08c379a000000000000000000000000000000000000000000000000000000000815260040161141990613e8e565b60405180910390fd5b61142c60086124b1565b915061143860086124bf565b61144285836124d5565b61144c82846124f3565b6000600a60008481526020019081526020016000209050858160000160006101000a81548173ffffffffffffffffffffffffffffffffffffffff021916908373ffffffffffffffffffffffffffffffffffffffff160217905550848160010160006101000a81548173ffffffffffffffffffffffffffffffffffffffff021916908373ffffffffffffffffffffffffffffffffffffffff16021790555034816002018190555060018160030160006101000a81548160ff02191690836003811115611540577f4e487b7100000000000000000000000000000000000000000000000000000000600052602160045260246000fd5b02179055508281600401819055504281600501819055506001600a600085815260200190815260200160002060060160008873ffffffffffffffffffffffffffffffffffffffff1673ffffffffffffffffffffffffffffffffffffffff16815260200190815260200160002060006101000a81548160ff0219169083151502179055506001600a600085815260200190815260200160002060060160008773ffffffffffffffffffffffffffffffffffffffff1673ffffffffffffffffffffffffffffffffffffffff16815260200190815260200160002060006101000a81548160ff0219169083151502179055507f604834685bff63c40ce3d42b03a2d723eb67e3b00dc04d01c8851f594a86bb0f868634866040516116649493929190613cac565b60405180910390a150509392505050565b61169083838360405180602001604052806000815250611a22565b505050565b6116a66116a061209f565b82612160565b6116e5576040517f08c379a00000000000000000000000000000000000000000000000000000000081526004016116dc906140ce565b60405180910390fd5b6116ee816124a5565b50565b6000806002600084815260200190815260200160002060009054906101000a900473ffffffffffffffffffffffffffffffffffffffff169050600073ffffffffffffffffffffffffffffffffffffffff168173ffffffffffffffffffffffffffffffffffffffff16141561179a576040517f08c379a000000000000000000000000000000000000000000000000000000000815260040161179190613f2e565b60405180910390fd5b80915050919050565b60008073ffffffffffffffffffffffffffffffffffffffff168273ffffffffffffffffffffffffffffffffffffffff161415611814576040517f08c379a000000000000000000000000000000000000000000000000000000000815260040161180b90613f0e565b60405180910390fd5b600360008373ffffffffffffffffffffffffffffffffffffffff1673ffffffffffffffffffffffffffffffffffffffff168152602001908152602001600020549050919050565b61186361209f565b73ffffffffffffffffffffffffffffffffffffffff1661188161194e565b73ffffffffffffffffffffffffffffffffffffffff16146118d7576040517f08c379a00000000000000000000000000000000000000000000000000000000081526004016118ce90613fee565b60405180910390fd5b6118e16000612567565b565b6000600a600083815260200190815260200160002060060160008473ffffffffffffffffffffffffffffffffffffffff1673ffffffffffffffffffffffffffffffffffffffff16815260200190815260200160002060009054906101000a900460ff16905092915050565b6000600760009054906101000a900473ffffffffffffffffffffffffffffffffffffffff16905090565b606060018054611987906143e3565b80601f01602080910402602001604051908101604052809291908181526020018280546119b3906143e3565b8015611a005780601f106119d557610100808354040283529160200191611a00565b820191906000526020600020905b8154815290600101906020018083116119e357829003601f168201915b5050505050905090565b565b611a1e611a1761209f565b838361262d565b5050565b611a33611a2d61209f565b83612160565b611a72576040517f08c379a0000000000000000000000000000000000000000000000000000000008152600401611a699061406e565b60405180910390fd5b611a7e8484848461279a565b50505050565b6060611a8f826127f6565b9050919050565b611a9e61209f565b73ffffffffffffffffffffffffffffffffffffffff16611abc61194e565b73ffffffffffffffffffffffffffffffffffffffff1614611b12576040517f08c379a0000000000000000000000000000000000000000000000000000000008152600401611b0990613fee565b60405180910390fd5b60405180604001604052808373ffffffffffffffffffffffffffffffffffffffff16815260200182815250600960008473ffffffffffffffffffffffffffffffffffffffff1673ffffffffffffffffffffffffffffffffffffffff16815260200190815260200160002060008201518160000160006101000a81548173ffffffffffffffffffffffffffffffffffffffff021916908373ffffffffffffffffffffffffffffffffffffffff160217905550602082015181600101559050505050565b6000600560008473ffffffffffffffffffffffffffffffffffffffff1673ffffffffffffffffffffffffffffffffffffffff16815260200190815260200160002060008373ffffffffffffffffffffffffffffffffffffffff1673ffffffffffffffffffffffffffffffffffffffff16815260200190815260200160002060009054906101000a900460ff16905092915050565b600a6020528060005260406000206000915090508060000160009054906101000a900473ffffffffffffffffffffffffffffffffffffffff16908060010160009054906101000a900473ffffffffffffffffffffffffffffffffffffffff16908060020154908060030160009054906101000a900460ff16908060040154908060050154905086565b6000600960008373ffffffffffffffffffffffffffffffffffffffff1673ffffffffffffffffffffffffffffffffffffffff168152602001908152602001600020600101549050919050565b60096020528060005260406000206000915090508060000160009054906101000a900473ffffffffffffffffffffffffffffffffffffffff16908060010154905082565b611d8961209f565b73ffffffffffffffffffffffffffffffffffffffff16611da761194e565b73ffffffffffffffffffffffffffffffffffffffff1614611dfd576040517f08c379a0000000000000000000000000000000000000000000000000000000008152600401611df490613fee565b60405180910390fd5b600073ffffffffffffffffffffffffffffffffffffffff168173ffffffffffffffffffffffffffffffffffffffff161415611e6d576040517f08c379a0000000000000000000000000000000000000000000000000000000008152600401611e6490613dce565b60405180910390fd5b611e7681612567565b50565b60007f01ffc9a7000000000000000000000000000000000000000000000000000000007bffffffffffffffffffffffffffffffffffffffffffffffffffffffff1916827bffffffffffffffffffffffffffffffffffffffffffffffffffffffff1916149050919050565b6000806003811115611f1e577f4e487b7100000000000000000000000000000000000000000000000000000000600052602160045260246000fd5b600a600084815260200190815260200160002060030160009054906101000a900460ff166003811115611f7a577f4e487b7100000000000000000000000000000000000000000000000000000000600052602160045260246000fd5b1415801561201b5750600380811115611fbc577f4e487b7100000000000000000000000000000000000000000000000000000000600052602160045260246000fd5b600a600084815260200190815260200160002060030160009054906101000a900460ff166003811115612018577f4e487b7100000000000000000000000000000000000000000000000000000000600052602160045260246000fd5b14155b15612029576001905061202e565b600090505b919050565b60008073ffffffffffffffffffffffffffffffffffffffff166002600084815260200190815260200160002060009054906101000a900473ffffffffffffffffffffffffffffffffffffffff1673ffffffffffffffffffffffffffffffffffffffff1614159050919050565b600033905090565b816004600083815260200190815260200160002060006101000a81548173ffffffffffffffffffffffffffffffffffffffff021916908373ffffffffffffffffffffffffffffffffffffffff160217905550808273ffffffffffffffffffffffffffffffffffffffff1661211a836116f1565b73ffffffffffffffffffffffffffffffffffffffff167f8c5be1e5ebec7d5bd14f71427d1e84f3dd0314c0f7b2291e5b200ac8c7c3b92560405160405180910390a45050565b600061216b82612033565b6121aa576040517f08c379a00000000000000000000000000000000000000000000000000000000081526004016121a190613e6e565b60405180910390fd5b60006121b5836116f1565b90508073ffffffffffffffffffffffffffffffffffffffff168473ffffffffffffffffffffffffffffffffffffffff1614806121f757506121f68185611bd4565b5b8061223557508373ffffffffffffffffffffffffffffffffffffffff1661221d84610b2d565b73ffffffffffffffffffffffffffffffffffffffff16145b91505092915050565b8273ffffffffffffffffffffffffffffffffffffffff1661225e826116f1565b73ffffffffffffffffffffffffffffffffffffffff16146122b4576040517f08c379a00000000000000000000000000000000000000000000000000000000081526004016122ab90613dee565b60405180910390fd5b600073ffffffffffffffffffffffffffffffffffffffff168273ffffffffffffffffffffffffffffffffffffffff161415612324576040517f08c379a000000000000000000000000000000000000000000000000000000000815260040161231b90613e2e565b60405180910390fd5b61232f838383612948565b61233a6000826120a7565b6001600360008573ffffffffffffffffffffffffffffffffffffffff1673ffffffffffffffffffffffffffffffffffffffff168152602001908152602001600020600082825461238a91906142d4565b925050819055506001600360008473ffffffffffffffffffffffffffffffffffffffff1673ffffffffffffffffffffffffffffffffffffffff16815260200190815260200160002060008282546123e191906141f3565b92505081905550816002600083815260200190815260200160002060006101000a81548173ffffffffffffffffffffffffffffffffffffffff021916908373ffffffffffffffffffffffffffffffffffffffff160217905550808273ffffffffffffffffffffffffffffffffffffffff168473ffffffffffffffffffffffffffffffffffffffff167fddf252ad1be2c89b69c2b068fc378daa952ba7f163c4a11628f55a4df523b3ef60405160405180910390a46124a0838383612a99565b505050565b6124ae81612a9e565b50565b600081600001549050919050565b6001816000016000828254019250508190555050565b6124ef828260405180602001604052806000815250612af1565b5050565b6124fc82612033565b61253b576040517f08c379a000000000000000000000000000000000000000000000000000000000815260040161253290613f4e565b60405180910390fd5b80600660008481526020019081526020016000209080519060200190612562929190613268565b505050565b6000600760009054906101000a900473ffffffffffffffffffffffffffffffffffffffff16905081600760006101000a81548173ffffffffffffffffffffffffffffffffffffffff021916908373ffffffffffffffffffffffffffffffffffffffff1602179055508173ffffffffffffffffffffffffffffffffffffffff168173ffffffffffffffffffffffffffffffffffffffff167f8be0079c531659141344cd1fd0a4f28419497f9722a3daafe3b4186f6b6457e060405160405180910390a35050565b8173ffffffffffffffffffffffffffffffffffffffff168373ffffffffffffffffffffffffffffffffffffffff16141561269c576040517f08c379a000000000000000000000000000000000000000000000000000000000815260040161269390613e4e565b60405180910390fd5b80600560008573ffffffffffffffffffffffffffffffffffffffff1673ffffffffffffffffffffffffffffffffffffffff16815260200190815260200160002060008473ffffffffffffffffffffffffffffffffffffffff1673ffffffffffffffffffffffffffffffffffffffff16815260200190815260200160002060006101000a81548160ff0219169083151502179055508173ffffffffffffffffffffffffffffffffffffffff168373ffffffffffffffffffffffffffffffffffffffff167f17307eab39ab6107e8899845ad3d59bd9653f200f220920489ca2b5937696c318360405161278d9190613d51565b60405180910390a3505050565b6127a584848461223e565b6127b184848484612b4c565b6127f0576040517f08c379a00000000000000000000000000000000000000000000000000000000081526004016127e790613d8e565b60405180910390fd5b50505050565b606061280182612033565b612840576040517f08c379a000000000000000000000000000000000000000000000000000000000815260040161283790613fae565b60405180910390fd5b6000600660008481526020019081526020016000208054612860906143e3565b80601f016020809104026020016040519081016040528092919081815260200182805461288c906143e3565b80156128d95780601f106128ae576101008083540402835291602001916128d9565b820191906000526020600020905b8154815290600101906020018083116128bc57829003601f168201915b5050505050905060006128ea612ce3565b9050600081511415612900578192505050612943565b60008251111561293557808260405160200161291d929190613bc0565b60405160208183030381529060405292505050612943565b61293e84612cfa565b925050505b919050565b6000600a60008381526020019081526020016000209050600073ffffffffffffffffffffffffffffffffffffffff168473ffffffffffffffffffffffffffffffffffffffff16141580156129c95750600073ffffffffffffffffffffffffffffffffffffffff168373ffffffffffffffffffffffffffffffffffffffff1614155b15612a935760026003811115612a08577f4e487b7100000000000000000000000000000000000000000000000000000000600052602160045260246000fd5b8160030160009054906101000a900460ff166003811115612a52577f4e487b7100000000000000000000000000000000000000000000000000000000600052602160045260246000fd5b14612a92576040517f08c379a0000000000000000000000000000000000000000000000000000000008152600401612a899061404e565b60405180910390fd5b5b50505050565b505050565b612aa781612da1565b6000600660008381526020019081526020016000208054612ac7906143e3565b905014612aee57600660008281526020019081526020016000206000612aed91906132ee565b5b50565b612afb8383612ebe565b612b086000848484612b4c565b612b47576040517f08c379a0000000000000000000000000000000000000000000000000000000008152600401612b3e90613d8e565b60405180910390fd5b505050565b6000612b6d8473ffffffffffffffffffffffffffffffffffffffff16613098565b15612cd6578373ffffffffffffffffffffffffffffffffffffffff1663150b7a02612b9661209f565b8786866040518563ffffffff1660e01b8152600401612bb89493929190613bff565b602060405180830381600087803b158015612bd257600080fd5b505af1925050508015612c0357506040513d601f19601f82011682018060405250810190612c0091906136bb565b60015b612c86573d8060008114612c33576040519150601f19603f3d011682016040523d82523d6000602084013e612c38565b606091505b50600081511415612c7e576040517f08c379a0000000000000000000000000000000000000000000000000000000008152600401612c7590613d8e565b60405180910390fd5b805181602001fd5b63150b7a0260e01b7bffffffffffffffffffffffffffffffffffffffffffffffffffffffff1916817bffffffffffffffffffffffffffffffffffffffffffffffffffffffff191614915050612cdb565b600190505b949350505050565b606060405180602001604052806000815250905090565b6060612d0582612033565b612d44576040517f08c379a0000000000000000000000000000000000000000000000000000000008152600401612d3b9061400e565b60405180910390fd5b6000612d4e612ce3565b90506000815111612d6e5760405180602001604052806000815250612d99565b80612d78846130bb565b604051602001612d89929190613bc0565b6040516020818303038152906040525b915050919050565b6000612dac826116f1565b9050612dba81600084612948565b612dc56000836120a7565b6001600360008373ffffffffffffffffffffffffffffffffffffffff1673ffffffffffffffffffffffffffffffffffffffff1681526020019081526020016000206000828254612e1591906142d4565b925050819055506002600083815260200190815260200160002060006101000a81549073ffffffffffffffffffffffffffffffffffffffff021916905581600073ffffffffffffffffffffffffffffffffffffffff168273ffffffffffffffffffffffffffffffffffffffff167fddf252ad1be2c89b69c2b068fc378daa952ba7f163c4a11628f55a4df523b3ef60405160405180910390a4612eba81600084612a99565b5050565b600073ffffffffffffffffffffffffffffffffffffffff168273ffffffffffffffffffffffffffffffffffffffff161415612f2e576040517f08c379a0000000000000000000000000000000000000000000000000000000008152600401612f2590613f8e565b60405180910390fd5b612f3781612033565b15612f77576040517f08c379a0000000000000000000000000000000000000000000000000000000008152600401612f6e90613e0e565b60405180910390fd5b612f8360008383612948565b6001600360008473ffffffffffffffffffffffffffffffffffffffff1673ffffffffffffffffffffffffffffffffffffffff1681526020019081526020016000206000828254612fd391906141f3565b92505081905550816002600083815260200190815260200160002060006101000a81548173ffffffffffffffffffffffffffffffffffffffff021916908373ffffffffffffffffffffffffffffffffffffffff160217905550808273ffffffffffffffffffffffffffffffffffffffff16600073ffffffffffffffffffffffffffffffffffffffff167fddf252ad1be2c89b69c2b068fc378daa952ba7f163c4a11628f55a4df523b3ef60405160405180910390a461309460008383612a99565b5050565b6000808273ffffffffffffffffffffffffffffffffffffffff163b119050919050565b60606000821415613103576040518060400160405280600181526020017f30000000000000000000000000000000000000000000000000000000000000008152509050613263565b600082905060005b6000821461313557808061311e90614446565b915050600a8261312e9190614249565b915061310b565b60008167ffffffffffffffff811115613177577f4e487b7100000000000000000000000000000000000000000000000000000000600052604160045260246000fd5b6040519080825280601f01601f1916602001820160405280156131a95781602001600182028036833780820191505090505b5090505b6000851461325c576001826131c291906142d4565b9150600a856131d1919061448f565b60306131dd91906141f3565b60f81b818381518110613219577f4e487b7100000000000000000000000000000000000000000000000000000000600052603260045260246000fd5b60200101907effffffffffffffffffffffffffffffffffffffffffffffffffffffffffffff1916908160001a905350600a856132559190614249565b94506131ad565b8093505050505b919050565b828054613274906143e3565b90600052602060002090601f01602090048101928261329657600085556132dd565b82601f106132af57805160ff19168380011785556132dd565b828001600101855582156132dd579182015b828111156132dc5782518255916020019190600101906132c1565b5b5090506132ea919061332e565b5090565b5080546132fa906143e3565b6000825580601f1061330c575061332b565b601f01602090049060005260206000209081019061332a919061332e565b5b50565b5b8082111561334757600081600090555060010161332f565b5090565b600061335e6133598461414e565b614129565b90508281526020810184848401111561337657600080fd5b6133818482856143a1565b509392505050565b600061339c6133978461417f565b614129565b9050828152602081018484840111156133b457600080fd5b6133bf8482856143a1565b509392505050565b6000813590506133d681614d1e565b92915050565b6000813590506133eb81614d35565b92915050565b60008135905061340081614d4c565b92915050565b60008151905061341581614d4c565b92915050565b600082601f83011261342c57600080fd5b813561343c84826020860161334b565b91505092915050565b600082601f83011261345657600080fd5b8135613466848260208601613389565b91505092915050565b60008135905061347e81614d63565b92915050565b60006020828403121561349657600080fd5b60006134a4848285016133c7565b91505092915050565b600080604083850312156134c057600080fd5b60006134ce858286016133c7565b92505060206134df858286016133c7565b9150509250929050565b6000806000606084860312156134fe57600080fd5b600061350c868287016133c7565b935050602061351d868287016133c7565b925050604084013567ffffffffffffffff81111561353a57600080fd5b61354686828701613445565b9150509250925092565b60008060006060848603121561356557600080fd5b6000613573868287016133c7565b9350506020613584868287016133c7565b92505060406135958682870161346f565b9150509250925092565b600080600080608085870312156135b557600080fd5b60006135c3878288016133c7565b94505060206135d4878288016133c7565b93505060406135e58782880161346f565b925050606085013567ffffffffffffffff81111561360257600080fd5b61360e8782880161341b565b91505092959194509250565b6000806040838503121561362d57600080fd5b600061363b858286016133c7565b925050602061364c858286016133dc565b9150509250929050565b6000806040838503121561366957600080fd5b6000613677858286016133c7565b92505060206136888582860161346f565b9150509250929050565b6000602082840312156136a457600080fd5b60006136b2848285016133f1565b91505092915050565b6000602082840312156136cd57600080fd5b60006136db84828501613406565b91505092915050565b6000602082840312156136f657600080fd5b60006137048482850161346f565b91505092915050565b61371681614308565b82525050565b6137258161431a565b82525050565b6000613736826141b0565b61374081856141c6565b93506137508185602086016143b0565b613759816145ab565b840191505092915050565b61376d8161438f565b82525050565b600061377e826141bb565b61378881856141d7565b93506137988185602086016143b0565b6137a1816145ab565b840191505092915050565b60006137b7826141bb565b6137c181856141e8565b93506137d18185602086016143b0565b80840191505092915050565b60006137ea6032836141d7565b91506137f5826145bc565b604082019050919050565b600061380d6022836141d7565b91506138188261460b565b604082019050919050565b60006138306026836141d7565b915061383b8261465a565b604082019050919050565b60006138536025836141d7565b915061385e826146a9565b604082019050919050565b6000613876601c836141d7565b9150613881826146f8565b602082019050919050565b60006138996024836141d7565b91506138a482614721565b604082019050919050565b60006138bc6019836141d7565b91506138c782614770565b602082019050919050565b60006138df602c836141d7565b91506138ea82614799565b604082019050919050565b6000613902602a836141d7565b915061390d826147e8565b604082019050919050565b60006139256017836141d7565b915061393082614837565b602082019050919050565b60006139486038836141d7565b915061395382614860565b604082019050919050565b600061396b6024836141d7565b9150613976826148af565b604082019050919050565b600061398e602a836141d7565b9150613999826148fe565b604082019050919050565b60006139b16029836141d7565b91506139bc8261494d565b604082019050919050565b60006139d4602e836141d7565b91506139df8261499c565b604082019050919050565b60006139f76025836141d7565b9150613a02826149eb565b604082019050919050565b6000613a1a6020836141d7565b9150613a2582614a3a565b602082019050919050565b6000613a3d6031836141d7565b9150613a4882614a63565b604082019050919050565b6000613a60602c836141d7565b9150613a6b82614ab2565b604082019050919050565b6000613a836020836141d7565b9150613a8e82614b01565b602082019050919050565b6000613aa6602f836141d7565b9150613ab182614b2a565b604082019050919050565b6000613ac96021836141d7565b9150613ad482614b79565b604082019050919050565b6000613aec6018836141d7565b9150613af782614bc8565b602082019050919050565b6000613b0f6031836141d7565b9150613b1a82614bf1565b604082019050919050565b6000613b32600e836141d7565b9150613b3d82614c40565b602082019050919050565b6000613b556015836141d7565b9150613b6082614c69565b602082019050919050565b6000613b786030836141d7565b9150613b8382614c92565b604082019050919050565b6000613b9b6018836141d7565b9150613ba682614ce1565b602082019050919050565b613bba81614385565b82525050565b6000613bcc82856137ac565b9150613bd882846137ac565b91508190509392505050565b6000602082019050613bf9600083018461370d565b92915050565b6000608082019050613c14600083018761370d565b613c21602083018661370d565b613c2e6040830185613bb1565b8181036060830152613c40818461372b565b905095945050505050565b600060c082019050613c60600083018961370d565b613c6d602083018861370d565b613c7a6040830187613bb1565b613c876060830186613764565b613c946080830185613bb1565b613ca160a0830184613bb1565b979650505050505050565b6000608082019050613cc1600083018761370d565b613cce602083018661370d565b613cdb6040830185613bb1565b613ce86060830184613bb1565b95945050505050565b6000604082019050613d06600083018561370d565b613d136020830184613bb1565b9392505050565b6000606082019050613d2f600083018661370d565b613d3c6020830185613bb1565b613d496040830184613bb1565b949350505050565b6000602082019050613d66600083018461371c565b92915050565b60006020820190508181036000830152613d868184613773565b905092915050565b60006020820190508181036000830152613da7816137dd565b9050919050565b60006020820190508181036000830152613dc781613800565b9050919050565b60006020820190508181036000830152613de781613823565b9050919050565b60006020820190508181036000830152613e0781613846565b9050919050565b60006020820190508181036000830152613e2781613869565b9050919050565b60006020820190508181036000830152613e478161388c565b9050919050565b60006020820190508181036000830152613e67816138af565b9050919050565b60006020820190508181036000830152613e87816138d2565b9050919050565b60006020820190508181036000830152613ea7816138f5565b9050919050565b60006020820190508181036000830152613ec781613918565b9050919050565b60006020820190508181036000830152613ee78161393b565b9050919050565b60006020820190508181036000830152613f078161395e565b9050919050565b60006020820190508181036000830152613f2781613981565b9050919050565b60006020820190508181036000830152613f47816139a4565b9050919050565b60006020820190508181036000830152613f67816139c7565b9050919050565b60006020820190508181036000830152613f87816139ea565b9050919050565b60006020820190508181036000830152613fa781613a0d565b9050919050565b60006020820190508181036000830152613fc781613a30565b9050919050565b60006020820190508181036000830152613fe781613a53565b9050919050565b6000602082019050818103600083015261400781613a76565b9050919050565b6000602082019050818103600083015261402781613a99565b9050919050565b6000602082019050818103600083015261404781613abc565b9050919050565b6000602082019050818103600083015261406781613adf565b9050919050565b6000602082019050818103600083015261408781613b02565b9050919050565b600060208201905081810360008301526140a781613b25565b9050919050565b600060208201905081810360008301526140c781613b48565b9050919050565b600060208201905081810360008301526140e781613b6b565b9050919050565b6000602082019050818103600083015261410781613b8e565b9050919050565b60006020820190506141236000830184613bb1565b92915050565b6000614133614144565b905061413f8282614415565b919050565b6000604051905090565b600067ffffffffffffffff8211156141695761416861457c565b5b614172826145ab565b9050602081019050919050565b600067ffffffffffffffff82111561419a5761419961457c565b5b6141a3826145ab565b9050602081019050919050565b600081519050919050565b600081519050919050565b600082825260208201905092915050565b600082825260208201905092915050565b600081905092915050565b60006141fe82614385565b915061420983614385565b9250827fffffffffffffffffffffffffffffffffffffffffffffffffffffffffffffffff0382111561423e5761423d6144c0565b5b828201905092915050565b600061425482614385565b915061425f83614385565b92508261426f5761426e6144ef565b5b828204905092915050565b600061428582614385565b915061429083614385565b9250817fffffffffffffffffffffffffffffffffffffffffffffffffffffffffffffffff04831182151516156142c9576142c86144c0565b5b828202905092915050565b60006142df82614385565b91506142ea83614385565b9250828210156142fd576142fc6144c0565b5b828203905092915050565b600061431382614365565b9050919050565b60008115159050919050565b60007fffffffff0000000000000000000000000000000000000000000000000000000082169050919050565b600081905061436082614d0a565b919050565b600073ffffffffffffffffffffffffffffffffffffffff82169050919050565b6000819050919050565b600061439a82614352565b9050919050565b82818337600083830152505050565b60005b838110156143ce5780820151818401526020810190506143b3565b838111156143dd576000848401525b50505050565b600060028204905060018216806143fb57607f821691505b6020821081141561440f5761440e61454d565b5b50919050565b61441e826145ab565b810181811067ffffffffffffffff8211171561443d5761443c61457c565b5b80604052505050565b600061445182614385565b91507fffffffffffffffffffffffffffffffffffffffffffffffffffffffffffffffff821415614484576144836144c0565b5b600182019050919050565b600061449a82614385565b91506144a583614385565b9250826144b5576144b46144ef565b5b828206905092915050565b7f4e487b7100000000000000000000000000000000000000000000000000000000600052601160045260246000fd5b7f4e487b7100000000000000000000000000000000000000000000000000000000600052601260045260246000fd5b7f4e487b7100000000000000000000000000000000000000000000000000000000600052602160045260246000fd5b7f4e487b7100000000000000000000000000000000000000000000000000000000600052602260045260246000fd5b7f4e487b7100000000000000000000000000000000000000000000000000000000600052604160045260246000fd5b6000601f19601f8301169050919050565b7f4552433732313a207472616e7366657220746f206e6f6e20455243373231526560008201527f63656976657220696d706c656d656e7465720000000000000000000000000000602082015250565b7f796f7520617265206e6f7420746865206b6f6c206f66207468697320746f6b6560008201527f6e21000000000000000000000000000000000000000000000000000000000000602082015250565b7f4f776e61626c653a206e6577206f776e657220697320746865207a65726f206160008201527f6464726573730000000000000000000000000000000000000000000000000000602082015250565b7f4552433732313a207472616e736665722066726f6d20696e636f72726563742060008201527f6f776e6572000000000000000000000000000000000000000000000000000000602082015250565b7f4552433732313a20746f6b656e20616c7265616479206d696e74656400000000600082015250565b7f4552433732313a207472616e7366657220746f20746865207a65726f2061646460008201527f7265737300000000000000000000000000000000000000000000000000000000602082015250565b7f4552433732313a20617070726f766520746f2063616c6c657200000000000000600082015250565b7f4552433732313a206f70657261746f7220717565727920666f72206e6f6e657860008201527f697374656e7420746f6b656e0000000000000000000000000000000000000000602082015250565b7f74686520657468206973206e6f74207361746973666169656420746865204b6f60008201527f6c20726571756972652100000000000000000000000000000000000000000000602082015250565b7f546865204b6f6c206973206e6f74206578697374656421000000000000000000600082015250565b7f4552433732313a20617070726f76652063616c6c6572206973206e6f74206f7760008201527f6e6572206e6f7220617070726f76656420666f7220616c6c0000000000000000602082015250565b7f796f7520617265206e6f7420746865206f776e6572206f66207468697320746f60008201527f6b656e2100000000000000000000000000000000000000000000000000000000602082015250565b7f4552433732313a2062616c616e636520717565727920666f7220746865207a6560008201527f726f206164647265737300000000000000000000000000000000000000000000602082015250565b7f4552433732313a206f776e657220717565727920666f72206e6f6e657869737460008201527f656e7420746f6b656e0000000000000000000000000000000000000000000000602082015250565b7f45524337323155524953746f726167653a2055524920736574206f66206e6f6e60008201527f6578697374656e7420746f6b656e000000000000000000000000000000000000602082015250565b7f57616974203220646179732c7468656e2063616e2072656465656d2c2070617460008201527f69656e7421000000000000000000000000000000000000000000000000000000602082015250565b7f4552433732313a206d696e7420746f20746865207a65726f2061646472657373600082015250565b7f45524337323155524953746f726167653a2055524920717565727920666f722060008201527f6e6f6e6578697374656e7420746f6b656e000000000000000000000000000000602082015250565b7f4552433732313a20617070726f76656420717565727920666f72206e6f6e657860008201527f697374656e7420746f6b656e0000000000000000000000000000000000000000602082015250565b7f4f776e61626c653a2063616c6c6572206973206e6f7420746865206f776e6572600082015250565b7f4552433732314d657461646174613a2055524920717565727920666f72206e6f60008201527f6e6578697374656e7420746f6b656e0000000000000000000000000000000000602082015250565b7f4552433732313a20617070726f76616c20746f2063757272656e74206f776e6560008201527f7200000000000000000000000000000000000000000000000000000000000000602082015250565b7f746865204e46542063616e6e6f74207472616e73666572210000000000000000600082015250565b7f4552433732313a207472616e736665722063616c6c6572206973206e6f74206f60008201527f776e6572206e6f7220617070726f766564000000000000000000000000000000602082015250565b7f4e4654206e6f7420657869737421000000000000000000000000000000000000600082015250565b7f546865204e66742063616e6e6f742072656465656d0000000000000000000000600082015250565b7f4552433732314275726e61626c653a2063616c6c6572206973206e6f74206f7760008201527f6e6572206e6f7220617070726f76656400000000000000000000000000000000602082015250565b7f7375627363726962652066656520697320746f6f206c6f770000000000000000600082015250565b60048110614d1b57614d1a61451e565b5b50565b614d2781614308565b8114614d3257600080fd5b50565b614d3e8161431a565b8114614d4957600080fd5b50565b614d5581614326565b8114614d6057600080fd5b50565b614d6c81614385565b8114614d7757600080fd5b5056fea264697066735822122068368cd9484f442c10568f0117372df702c0f4e715a00835fb3ba75775d6dd1564736f6c63430008040033",
  "linkReferences": {},
  "deployedLinkReferences": {}
}